{
  "contractName": "Urunler",
  "abi": [
    {
      "inputs": [],
      "payable": false,
      "stateMutability": "nonpayable",
      "type": "constructor"
    },
    {
      "constant": true,
      "inputs": [],
      "name": "productCount",
      "outputs": [
        {
          "internalType": "uint256",
          "name": "",
          "type": "uint256"
        }
      ],
      "payable": false,
      "stateMutability": "view",
      "type": "function"
    },
    {
      "constant": true,
      "inputs": [
        {
          "internalType": "uint256",
          "name": "",
          "type": "uint256"
        }
      ],
      "name": "products",
      "outputs": [
        {
          "internalType": "uint256",
          "name": "id",
          "type": "uint256"
        },
        {
          "internalType": "string",
          "name": "heading",
          "type": "string"
        },
        {
          "internalType": "string",
          "name": "description",
          "type": "string"
        },
        {
          "internalType": "string",
          "name": "fabrikaFiyat",
          "type": "string"
        },
        {
          "internalType": "string",
          "name": "toptanciData",
          "type": "string"
        },
        {
          "internalType": "string",
          "name": "kargoData",
          "type": "string"
        },
        {
          "internalType": "string",
          "name": "marketData",
          "type": "string"
        },
        {
          "internalType": "string",
          "name": "gecmisData",
          "type": "string"
        }
      ],
      "payable": false,
      "stateMutability": "view",
      "type": "function"
    },
    {
      "constant": false,
      "inputs": [
        {
          "internalType": "string",
          "name": "head",
          "type": "string"
        },
        {
          "internalType": "string",
          "name": "desc",
          "type": "string"
        },
        {
          "internalType": "string",
          "name": "fabrikaFiyat",
          "type": "string"
        },
        {
          "internalType": "string",
          "name": "toptanciData",
          "type": "string"
        },
        {
          "internalType": "string",
          "name": "kargoData",
          "type": "string"
        },
        {
          "internalType": "string",
          "name": "marketData",
          "type": "string"
        },
        {
          "internalType": "string",
          "name": "gecmisData",
          "type": "string"
        }
      ],
      "name": "createProduct",
      "outputs": [],
      "payable": false,
      "stateMutability": "nonpayable",
      "type": "function"
    },
    {
      "constant": false,
      "inputs": [
        {
          "internalType": "uint256",
          "name": "id",
          "type": "uint256"
        },
        {
          "internalType": "string",
          "name": "head",
          "type": "string"
        },
        {
          "internalType": "string",
          "name": "desc",
          "type": "string"
        },
        {
          "internalType": "string",
          "name": "fabrikaFiyat",
          "type": "string"
        },
        {
          "internalType": "string",
          "name": "toptanciData",
          "type": "string"
        },
        {
          "internalType": "string",
          "name": "kargoData",
          "type": "string"
        },
        {
          "internalType": "string",
          "name": "marketData",
          "type": "string"
        },
        {
          "internalType": "string",
          "name": "gecmisData",
          "type": "string"
        }
      ],
      "name": "updateProduct",
      "outputs": [],
      "payable": false,
      "stateMutability": "nonpayable",
      "type": "function"
    },
    {
      "constant": false,
      "inputs": [
        {
          "internalType": "uint256",
          "name": "id",
          "type": "uint256"
        }
      ],
      "name": "deleteProduct",
      "outputs": [],
      "payable": false,
      "stateMutability": "nonpayable",
      "type": "function"
    }
  ],
  "bytecode": "0x608060405234801561001057600080fd5b5060008081905550611614806100276000396000f3fe608060405234801561001057600080fd5b5060043610610074576000357c01000000000000000000000000000000000000000000000000000000009004806317a2aa7e146100795780637acc0b20146104c9578063e0f6ef87146107ff578063ed90c7b71461081d578063fee767d31461084b575b600080fd5b6104c7600480360361010081101561009057600080fd5b8101908080359060200190929190803590602001906401000000008111156100b757600080fd5b8201836020820111156100c957600080fd5b803590602001918460018302840111640100000000831117156100eb57600080fd5b91908080601f016020809104026020016040519081016040528093929190818152602001838380828437600081840152601f19601f8201169050808301925050505050505091929192908035906020019064010000000081111561014e57600080fd5b82018360208201111561016057600080fd5b8035906020019184600183028401116401000000008311171561018257600080fd5b91908080601f016020809104026020016040519081016040528093929190818152602001838380828437600081840152601f19601f820116905080830192505050505050509192919290803590602001906401000000008111156101e557600080fd5b8201836020820111156101f757600080fd5b8035906020019184600183028401116401000000008311171561021957600080fd5b91908080601f016020809104026020016040519081016040528093929190818152602001838380828437600081840152601f19601f8201169050808301925050505050505091929192908035906020019064010000000081111561027c57600080fd5b82018360208201111561028e57600080fd5b803590602001918460018302840111640100000000831117156102b057600080fd5b91908080601f016020809104026020016040519081016040528093929190818152602001838380828437600081840152601f19601f8201169050808301925050505050505091929192908035906020019064010000000081111561031357600080fd5b82018360208201111561032557600080fd5b8035906020019184600183028401116401000000008311171561034757600080fd5b91908080601f016020809104026020016040519081016040528093929190818152602001838380828437600081840152601f19601f820116905080830192505050505050509192919290803590602001906401000000008111156103aa57600080fd5b8201836020820111156103bc57600080fd5b803590602001918460018302840111640100000000831117156103de57600080fd5b91908080601f016020809104026020016040519081016040528093929190818152602001838380828437600081840152601f19601f8201169050808301925050505050505091929192908035906020019064010000000081111561044157600080fd5b82018360208201111561045357600080fd5b8035906020019184600183028401116401000000008311171561047557600080fd5b91908080601f016020809104026020016040519081016040528093929190818152602001838380828437600081840152601f19601f820116905080830192505050505050509192919290505050610c90565b005b6104f5600480360360208110156104df57600080fd5b8101908080359060200190929190505050610dff565b604051808981526020018060200180602001806020018060200180602001806020018060200188810388528f818151815260200191508051906020019080838360005b83811015610553578082015181840152602081019050610538565b50505050905090810190601f1680156105805780820380516001836020036101000a031916815260200191505b5088810387528e818151815260200191508051906020019080838360005b838110156105b957808201518184015260208101905061059e565b50505050905090810190601f1680156105e65780820380516001836020036101000a031916815260200191505b5088810386528d818151815260200191508051906020019080838360005b8381101561061f578082015181840152602081019050610604565b50505050905090810190601f16801561064c5780820380516001836020036101000a031916815260200191505b5088810385528c818151815260200191508051906020019080838360005b8381101561068557808201518184015260208101905061066a565b50505050905090810190601f1680156106b25780820380516001836020036101000a031916815260200191505b5088810384528b818151815260200191508051906020019080838360005b838110156106eb5780820151818401526020810190506106d0565b50505050905090810190601f1680156107185780820380516001836020036101000a031916815260200191505b5088810383528a818151815260200191508051906020019080838360005b83811015610751578082015181840152602081019050610736565b50505050905090810190601f16801561077e5780820380516001836020036101000a031916815260200191505b50888103825289818151815260200191508051906020019080838360005b838110156107b757808201518184015260208101905061079c565b50505050905090810190601f1680156107e45780820380516001836020036101000a031916815260200191505b509f5050505050505050505050505050505060405180910390f35b61080761127c565b6040518082815260200191505060405180910390f35b6108496004803603602081101561083357600080fd5b8101908080359060200190929190505050611282565b005b610c8e600480360360e081101561086157600080fd5b810190808035906020019064010000000081111561087e57600080fd5b82018360208201111561089057600080fd5b803590602001918460018302840111640100000000831117156108b257600080fd5b91908080601f016020809104026020016040519081016040528093929190818152602001838380828437600081840152601f19601f8201169050808301925050505050505091929192908035906020019064010000000081111561091557600080fd5b82018360208201111561092757600080fd5b8035906020019184600183028401116401000000008311171561094957600080fd5b91908080601f016020809104026020016040519081016040528093929190818152602001838380828437600081840152601f19601f820116905080830192505050505050509192919290803590602001906401000000008111156109ac57600080fd5b8201836020820111156109be57600080fd5b803590602001918460018302840111640100000000831117156109e057600080fd5b91908080601f016020809104026020016040519081016040528093929190818152602001838380828437600081840152601f19601f82011690508083019250505050505050919291929080359060200190640100000000811115610a4357600080fd5b820183602082011115610a5557600080fd5b80359060200191846001830284011164010000000083111715610a7757600080fd5b91908080601f016020809104026020016040519081016040528093929190818152602001838380828437600081840152601f19601f82011690508083019250505050505050919291929080359060200190640100000000811115610ada57600080fd5b820183602082011115610aec57600080fd5b80359060200191846001830284011164010000000083111715610b0e57600080fd5b91908080601f016020809104026020016040519081016040528093929190818152602001838380828437600081840152601f19601f82011690508083019250505050505050919291929080359060200190640100000000811115610b7157600080fd5b820183602082011115610b8357600080fd5b80359060200191846001830284011164010000000083111715610ba557600080fd5b91908080601f016020809104026020016040519081016040528093929190818152602001838380828437600081840152601f19601f82011690508083019250505050505050919291929080359060200190640100000000811115610c0857600080fd5b820183602082011115610c1a57600080fd5b80359060200191846001830284011164010000000083111715610c3c57600080fd5b91908080601f016020809104026020016040519081016040528093929190818152602001838380828437600081840152601f19601f82011690508083019250505050505050919291929050505061131b565b005b8660018981548110610c9e57fe5b90600052602060002090600802016001019080519060200190610cc2929190611472565b508560018981548110610cd157fe5b90600052602060002090600802016002019080519060200190610cf5929190611472565b508460018981548110610d0457fe5b90600052602060002090600802016003019080519060200190610d28929190611472565b508360018981548110610d3757fe5b90600052602060002090600802016004019080519060200190610d5b929190611472565b508260018981548110610d6a57fe5b90600052602060002090600802016005019080519060200190610d8e929190611472565b508160018981548110610d9d57fe5b90600052602060002090600802016006019080519060200190610dc1929190611472565b508060018981548110610dd057fe5b90600052602060002090600802016007019080519060200190610df4929190611472565b505050505050505050565b60018181548110610e0c57fe5b9060005260206000209060080201600091509050806000015490806001018054600181600116156101000203166002900480601f016020809104026020016040519081016040528092919081815260200182805460018160011615610100020316600290048015610ebe5780601f10610e9357610100808354040283529160200191610ebe565b820191906000526020600020905b815481529060010190602001808311610ea157829003601f168201915b505050505090806002018054600181600116156101000203166002900480601f016020809104026020016040519081016040528092919081815260200182805460018160011615610100020316600290048015610f5c5780601f10610f3157610100808354040283529160200191610f5c565b820191906000526020600020905b815481529060010190602001808311610f3f57829003601f168201915b505050505090806003018054600181600116156101000203166002900480601f016020809104026020016040519081016040528092919081815260200182805460018160011615610100020316600290048015610ffa5780601f10610fcf57610100808354040283529160200191610ffa565b820191906000526020600020905b815481529060010190602001808311610fdd57829003601f168201915b505050505090806004018054600181600116156101000203166002900480601f0160208091040260200160405190810160405280929190818152602001828054600181600116156101000203166002900480156110985780601f1061106d57610100808354040283529160200191611098565b820191906000526020600020905b81548152906001019060200180831161107b57829003601f168201915b505050505090806005018054600181600116156101000203166002900480601f0160208091040260200160405190810160405280929190818152602001828054600181600116156101000203166002900480156111365780601f1061110b57610100808354040283529160200191611136565b820191906000526020600020905b81548152906001019060200180831161111957829003601f168201915b505050505090806006018054600181600116156101000203166002900480601f0160208091040260200160405190810160405280929190818152602001828054600181600116156101000203166002900480156111d45780601f106111a9576101008083540402835291602001916111d4565b820191906000526020600020905b8154815290600101906020018083116111b757829003601f168201915b505050505090806007018054600181600116156101000203166002900480601f0160208091040260200160405190810160405280929190818152602001828054600181600116156101000203166002900480156112725780601f1061124757610100808354040283529160200191611272565b820191906000526020600020905b81548152906001019060200180831161125557829003601f168201915b5050505050905088565b60005481565b6001818154811061128f57fe5b90600052602060002090600802016000808201600090556001820160006112b691906114f2565b6002820160006112c691906114f2565b6003820160006112d691906114f2565b6004820160006112e691906114f2565b6005820160006112f691906114f2565b60068201600061130691906114f2565b60078201600061131691906114f2565b505050565b600160405180610100016040528060008081548092919060010191905055815260200189815260200188815260200187815260200186815260200185815260200184815260200183815250908060018154018082558091505090600182039060005260206000209060080201600090919290919091506000820151816000015560208201518160010190805190602001906113b792919061153a565b5060408201518160020190805190602001906113d492919061153a565b5060608201518160030190805190602001906113f192919061153a565b50608082015181600401908051906020019061140e92919061153a565b5060a082015181600501908051906020019061142b92919061153a565b5060c082015181600601908051906020019061144892919061153a565b5060e082015181600701908051906020019061146592919061153a565b5050505050505050505050565b828054600181600116156101000203166002900490600052602060002090601f016020900481019282601f106114b357805160ff19168380011785556114e1565b828001600101855582156114e1579182015b828111156114e05782518255916020019190600101906114c5565b5b5090506114ee91906115ba565b5090565b50805460018160011615610100020316600290046000825580601f106115185750611537565b601f01602090049060005260206000209081019061153691906115ba565b5b50565b828054600181600116156101000203166002900490600052602060002090601f016020900481019282601f1061157b57805160ff19168380011785556115a9565b828001600101855582156115a9579182015b828111156115a857825182559160200191906001019061158d565b5b5090506115b691906115ba565b5090565b6115dc91905b808211156115d85760008160009055506001016115c0565b5090565b9056fea265627a7a72315820094ad229cc4a6632848dcebdeda0650142e556b4af2f2b820cbbd9b6ddcff62d64736f6c63430005100032",
  "source": "//SPDX-License-Identifier: Unlicensed\npragma solidity ^0.5.9;\ncontract Urunler {\n\n    uint public productCount;\n    struct Product {\n\n        uint id ;\n        string heading;\n        string description;\n        string fabrikaFiyat;\n        string toptanciData;\n        string kargoData;\n        string marketData;\n        string gecmisData;\n    }\n\n    Product[] public products;\n\n    constructor() public{\n        productCount = 0 ;\n    }\n\n\n    function createProduct(string memory head,string memory desc,string memory fabrikaFiyat,string memory toptanciData,string memory kargoData,string memory marketData,string memory gecmisData) public{\n        products.push(Product(productCount++,head,desc, fabrikaFiyat, toptanciData, kargoData, marketData, gecmisData)) ;\n\n    }\n\n    function updateProduct(uint id,string memory head,string memory desc,string memory fabrikaFiyat,string memory toptanciData,string memory kargoData,string memory marketData,string memory gecmisData) public{\n        products[id].heading = head ;\n        products[id].description = desc ;\n        products[id].fabrikaFiyat = fabrikaFiyat;\n        products[id].toptanciData = toptanciData;\n        products[id].kargoData = kargoData;\n        products[id].marketData = marketData;\n        products[id].gecmisData = gecmisData;\n\n    }\n\n    function deleteProduct(uint id) public{\n        delete products[id];\n    }\n\n}",
  "sourcePath": "C:\\Users\\kemal\\Desktop\\Yeni klasör (3)\\BlockChain_Flutter_2-master\\contracts\\Urunler.sol",
  "compiler": {
    "name": "solc",
    "version": "0.5.16+commit.9c3226ce.Emscripten.clang"
  },
  "schemaVersion": "3.4.4",
  "updatedAt": "2022-07-03T17:15:42.199Z",
  "networkType": "ethereum",
  "devdoc": {
    "methods": {}
  },
  "userdoc": {
    "methods": {}
  }
}